:020000040800F2
:10000000701A0020C55900083355000835550008FE
:1000100000000000000000000000000000000000E0
:10002000000000000000000000000000375500083C
:100030000000000000000000395500083B55000892
:100040004B1D0008671E0008833500082B3C000884
:10005000533F000843550008F73F00086555000866
:10006000CF4D0008BF570008E15500087F59000830
:10007000E9590008EB590008ED590008EF5900084C
:10008000F1590008EB55000800000000F359000882
:10009000F5590008F7590008F9590008FB590008FC
:1000A000FD590008FF590008015A0008F5550008DD
:1000B0001956000800000000035A0008F1B5A4B06A
:1000C0000E0014001D004A487844FF30253003C854
:1000D00022AA03C2049600200D9001E00198241882
:1000E00000206946488022AB0022D243210000A8AC
:1000F000801C01F044F90190012805DA2078411EA6
:100100008941C943C90F0191684640882528019E4D
:1001100000D1761E012E0EDB270039780498249A30
:1001200090470490002800D1F4E20D98401C0D90F7
:100130007F1C761EF1D168464088252807D1002013
:100140000790089009900A900B900C9008E0684680
:1001500040880028C2D10D98DEE20100012008434A
:10016000641C21782029F8D023290ED02B2904D013
:100170002D2907D030290BD00DE0010002200843C3
:1001800080B2EDE701000420F9E701000820F6E75E
:1001900001001020F3E72A290FD1296829600A6895
:1001A000091D29600F92002A05D551420F910100C7
:1001B0000420084380B2641C12E000210F910AE081
:1001C0000F9A7B4B9A4205D093009A18520051180F
:1001D00030390F91641C21780A00303A0A2AEFD393
:1001E00021782E2906D00021C9430E9121E000BFBD
:1001F000EC560000641C21782A2907D1296829605F
:100200000A68091D29600E92641C12E000210E91FB
:100210000AE00E9A664B9A4205D093009A18520053
:10022000511830390E91641C21780A00303A0A2A9C
:10023000EFD302A9088726783100044878440C30AF
:1002400001F0ABF8002803D0641C02E098560000CF
:10025000002602A83A30067002A83A3000786828D2
:1002600004D12178682901D1622005E06C2807D1EA
:1002700020786C2804D1712002A93A310870641CDE
:1002800012A806902678641C300025382AD01C3825
:1002900000D1D6E0001F022800D8D2E0133800D1E8
:1002A000F6E0093800D1CCE0801E00D15EE1401EAE
:1002B00000D132E1401E022800D8C2E0001F00D168
:1002C0002BE1401F00D18DE0401E00D1E0E0401E38
:1002D0002FD0C01E0BD0801E00D1D9E0C01E00D18F
:1002E000D6E066E101200790252012A99FE002A830
:1002F0003A3000786C282868286016D00668001DFF
:10030000286005960E9F002F03D5300001F04FF8AE
:1003100009E03A000021300001F051F8002801D036
:10032000801B00E0380008904FE10268001D286043
:1003300038E1286828600268001D28600020C0435A
:100340000021104002AA03C212A80590069B3C2679
:1003500002A803C8002904D1002802D10E9A002A5D
:1003600014D0761E01960207120F3032D2B23A2A0A
:1003700000DB27329A5500090A071043090901D109
:10038000002803D0059A9F19BA42EAD33C20801B6B
:100390000890991905910E9988420DDA081A0A9069
:1003A00002A8008F0349014002A801870DE100BFA8
:1003B000FFFFFF7FEFFF0000002900D405E102A945
:1003C0003831097814220A40102A00D0FDE00F9934
:1003D000079A891A0A9A891A0E1A012E00DAF4E08D
:1003E0000A96F2E002A83A300078622819D068280C
:1003F00006D06A280CD06C281BD0712808D018E0D1
:10040000286828600168001D28600D980880DCE0DD
:10041000286828600268001D28600D98C11703C273
:10042000D3E0286828600168001D28600D980870D6
:10043000CBE0286828600168001D28600D980860DE
:10044000C3E02A68D21D072082432A6003CA2A60BB
:1004500002AA03C2002903D5012007902D200CE039
:1004600002A8008F810703D5012007902B2004E00C
:10047000C00704D501200790202012A9087012A8F7
:10048000079940180590310002A800F0AFFB9CE0EE
:1004900002A83A3002786C2A0BD0712A01D06A2A5D
:1004A00007D12B68DB1D072083432B6003CB2B6018
:1004B00005E0296829600868091D2960002102AB50
:1004C00003C3682A03D102A803C880B20BE0622AE2
:1004D00003D102A803C8C0B205E0742A01D07A2A69
:1004E00004D102A803C8002102AA03C202A838301E
:1004F0000078000731D502A803C8002901D10028DF
:100500002BD020203043782827D1302012A9087022
:100510000220079012A846701FE0290002A83A3076
:10052000007800F0FBF802AA03C202A8002904DA4E
:100530000798411C07912D210DE0008F810704D5FC
:100540000798411C07912B2105E0C00705D50798A6
:10055000411C0791202112AA115412A80799401892
:100560000590310002A800F0A7FA2EE002A83A3068
:1005700000786C2809D0012007902868286001685D
:10058000001D286012A801701FE02868286001681B
:10059000001D286068468180002001A94880C04372
:1005A0000E9001AA02A9249800F0ECF800280CD5BE
:1005B000B0E001200790252012A90870002E04D079
:1005C0000798411C079112A90E540F980799401AD9
:1005D0000A99401A0899401A0B99401A0999401A29
:1005E0000C99401A019002A838300078400711D4C5
:1005F000202069460870002609E001236A4602A906
:10060000249800F0A4FE002800D083E0761C019816
:100610008642F2DB079F12AE0BE031780498249AF1
:1006200090470490002875D00D98401C0D90761CC2
:100630007F1E002FF1D13020694608700A9F0026E6
:1006400008E001236A4602A9249800F080FE0028F1
:1006500060D1761CBE42F4DB089F059E0BE031782A
:100660000498249A90470490002853D00D98401C79
:100670000D90761C7F1E002FF1D130206946087046
:100680000B9F002608E001236A4602A9249800F087
:100690005EFE00283ED1761CBE42F4DB099F059821
:1006A000089946180BE031780498249A90470490F2
:1006B00000282FD00D98401C0D90761C7F1E002F17
:1006C000F1D13020694608700C9F002608E0012314
:1006D0006A4602A9249800F03AFE00281AD1761C36
:1006E000BE42F4DB02A838300078400700D4F7E4BB
:1006F000202069460870002600E0761C019886429A
:1007000000DBEDE401236A4602A9249800F01FFEF5
:100710000028F2D00020C04325B0F0BD0A006228B6
:1007200022D0682819D06A2808D06C2823D07128D4
:1007300004D074281FD07A2808D01CE01368DB1D71
:1007400007208343136003CB136070471168116067
:100750000868091D11600021704711681160086860
:10076000091D116000B20BE0116811600868091DD5
:10077000116040B204E0116811600868091D116041
:10078000C1177047F4B598B007000C00206B002823
:1007900000D50E48029000F01EFE616B0818049010
:1007A00009487844223003C806AA03C23820205CD6
:1007B000400702D4049841280AD208A80390402098
:1007C0000490002613E000BF24510000FFFFFF7FCC
:1007D00000F006FE03900028F3D10020C04369E139
:1007E0001898801C189002980099401A029002985C
:1007F000012800DAD1E006AA1898018801A8401C57
:1008000000F04AFE0090002800D5DAE01898008831
:10081000002804D10098401E009000D5D1E0029835
:100820000099884200DAB8E060690499009A821859
:10083000914200D3A0E066634142206A081AA16990
:10084000401A616A401AE169401AA16A401A05908B
:100850003820205C400711D420206946087100250B
:1008600009E0012301AA2100380000F070FD0028F2
:1008700000D0A6E06D1C05988542F2DB6669039DF9
:100880000BE02978A068B847A060002800D198E064
:10089000E06A401CE0626D1C761E002EF1D1302013
:1008A00069460871266A002509E0012301AA210092
:1008B000380000F04CFD002800D082E06D1CB542ED
:1008C000F3DBA669E5680AE02978A068B847A0606C
:1008D000002876D0E06A401CE0626D1C761E002E77
:1008E000F2D1302069460871666A002508E00123CC
:1008F00001AA2100380000F02AFD002861D16D1CFA
:10090000B542F4DBE669E068A16945180AE0297898
:10091000A068B847A060002853D0E06A401CE0629D
:100920006D1C761E002EF2D1302069460871A66A31
:10093000002508E0012301AA2100380000F007FD8E
:1009400000283ED16D1CB542F4DB3820205C400706
:1009500010D5202069460871002508E0012301AA6E
:100960002100380000F0F3FC00282AD16D1C059806
:100970008542F3DB00266661009A01A9491C0398B1
:100980006369C01800F094FD6069009940186061C7
:1009900018980088002800D022E7606B6169401A2F
:1009A000216A401AA169401A616A401AE169401A35
:1009B000A16A401A02903820205C400711D400251B
:1009C0000CE00026F6436EE02021A068B847A06046
:1009D0000028F6D0E06A401CE0626D1C0298854257
:1009E000F2DB6369039A2100380000F0B0FC0028B4
:1009F000E7D1206A0090002509E03021A068B847BF
:100A0000A0600028DDD0E06A401CE0626D1C009808
:100A10008542F2DBA369E2682100380000F097FC10
:100A20000028CED1606A0090002509E03021A0683E
:100A3000B847A0600028C4D0E06A401CE0626D1C8A
:100A400000988542F2DBE369E068A1694218210061
:100A5000380000F07CFC0028B3D1A06A009000258B
:100A600009E03021A068B847A0600028A9D0E06A5A
:100A7000401CE0626D1C00988542F2DB3820205C4F
:100A800040070ED5002509E02021A068B847A060E6
:100A9000002896D0E06A401CE0626D1C02988542F6
:100AA000F2DB66616663039808A9884201D000F012
:100AB0002DFD300019B0F0BDF3B583B00069009092
:100AC0006846027C6F2A01D1082406E020211143E8
:100AD000782901D00A2400E010243C25039803C89B
:100AE00006000F00642A01D0692A07D1002905DA1F
:100AF00000200021801BB94106000F00002F12D1F9
:100B0000002E10D10398006B00280CD1082C3CD18A
:100B1000039838300078000737D53B2530200099FE
:100B20003B31087031E06D1E019530003900220024
:100B3000E31700F02FFD3032D2B23A2A03DB6846C9
:100B4000007C5138121800984255300039002200BC
:100B5000E31700F01FFD06000F0001D1002E05D0A5
:100B60000398C068009949198842DCD3082C0CD13D
:100B7000039838300078000707D50098405D30288A
:100B800003D06D1E3020009948553C20401B03992E
:100B9000886100994919039AD1600399096B8842C9
:100BA00009DA081A039908620398008F0E49014078
:100BB0000398018715E0002913D503993831097886
:100BC00014220A40102A0CD10399496B039A5269E6
:100BD000891A039A126A891A0D1A012D01DB0398EA
:100BE000056205B0F0BD0000EFFF0000F3B591B065
:100BF00006AD03C802AA03C212A80078202101434F
:100C0000009161290BD01198006B002801D50620B6
:100C100003E004D1672902D10120119908631198DA
:100C200041684800400DAA4A904225D1080310D1DE
:100C30001198006800280CD103201199886112A82E
:100C4000007861381A2842D3234878448A300090CB
:100C50000BE003201199886112A8007861381A28E6
:100C600031D31E48784474300090032200991198C3
:100C7000C06800F01DFCF1E1012817DA119800F0BE
:100C8000BEFC012812DB002700260098612832D123
:100C90001198C06830210170401C411C119AD1602C
:100CA00012A9097861291FD178211EE0119949689C
:100CB000884A0A4088491143119A51608749461A67
:100CC0000027FF43E1E7064878441430CCE70548A5
:100CD00078441030BBE700BF284C00001C4C0000DB
:100CE000144C0000184C0000582101701198406904
:100CF000801C11994861002F03D100246846878029
:100D0000A2E10098612800D09FE01198046B002CAC
:100D100001D5212400E0641C24B2601C00901198CD
:100D200003C804AA03C202A803C80022002300F0DB
:100D300088FC04A803C802D280221206514002AAED
:100D400003C2301F6946888000270F7606AE761CE6
:100D500000E0F61D0098012830DB02A803C800223D
:100D6000002300F087FC29D21C2102A800F0B0FC6F
:100D700002A803C800F03AFD05000098C01F0090CB
:100D800001280ADB280000F05FFD02000B0002A82A
:100D900003C800F0D0FD02AA03C2F61D072004E03C
:100DA000761E2907090F31702D11012D01DB401E20
:100DB000F6D5401ECDD4761E3770FAE706A8401C43
:100DC000311A06AD6D1CA14200DA0C0024B22000DD
:100DD00032D4884205DA06A909184978082900DBC7
:100DE0000F2706A9091801E0641E491E401E0A7853
:100DF000BA42F9D00F2F04D106A909184A78521C1B
:100E00004A70002806D506AD641C019800B2001D8A
:100E10006946888024B2601E0ED429180A783032C0
:100E2000D2B23A2A03DB12AB1B783A3BD2180A70D3
:100E3000401E491E0028F1D51198006B002800D4EF
:100E400002E1601E11990863FEE002A803C80022B7
:100E5000002300F0F6FB06D202A803C88022120687
:100E6000514002AA03C236B27D4870437D4900F06A
:100E7000EFFD694688800720019909B2421A0020D7
:100E80007949012A20DB049202AA30CA00260F0009
:100E90000498C00707D532003B002000290000F06D
:100EA00031FE04000D000498401004903000390019
:100EB00032003B0000F026FE06000F0004980028D8
:100EC000E6D102A830C028E054420026674F18E05F
:100ED000FF070000FFFF0F800000E03FFE0300005F
:100EE000E00707D504A803C832003B0000F00AFE63
:100EF00006000F00641004A803C804AA0CCA00F07E
:100F000001FE04AA03C2002CEAD102A803C83200E1
:100F10003B0000F0B9FE02AA03C20098662803D184
:100F2000019800B20A3000E006201199096B0818F8
:100F30000490142801DB13200490302069460876C1
:100F400006AC641C049801283ADB02A803C800F030
:100F50005FFC05000834042628000A2100F07BFD10
:100F60000F0028000A2100F076FD0500641E3037CE
:100F700027700A2100F06FFD0F0028000A2100F001
:100F80006AFD0500641E30372770761EE4D10834F0
:100F90000498083804900128D4DB02A803C800F0A4
:100FA00037FC00F05BFC02000B0002A803C800F055
:100FB000C2FC00222E4B00F0A5FD02AA03C2C4E72A
:100FC00006A8401C201A06AD6D1C6A4605E0401EAE
:100FD000019909B2491E91806D1C29783029F6D0FB
:100FE0000099662903D1019909B2491C04E06529D9
:100FF00001D1012100E00021119A126B541824B292
:10100000A04200DA040024B221001DD4814204DA97
:10101000685C352801DB392000E030206A1800E0E8
:10102000641E521E491E13788342F9D0392802D11A
:10103000685C401C6854002906D56D1E641C01982C
:1010400000B2401C69468880019800B2009023B22B
:101050002A0012A80178119800F00CF813B0F0BD26
:1010600097750000A0860100000024400000F03FBA
:1010700084D79741F3B589B015001C0000F07FFEBE
:101080000190406A0078694608720998076B012C44
:1010900001DA0124ADA50AA8017820200843109E9A
:1010A000662801D1761C18E0672800D09FE036B290
:1010B0000321C9438E4200DA9DE0BE4200DB9AE084
:1010C000761C099838300078000702D4BC4200DA58
:1010D000270036B2BF1B00D500270998C0680090D2
:1010E0000998806900990918019136B2012E2CDA0D
:1010F000401C3021019A1170012F04DA099938310E
:101100000978090704D56946097A009A1154401CE8
:10111000099988617042874200DA7E4236B2704295
:1011200009994862BF19A74200DA3C0024B2099825
:10113000C461220029000098099B9B69C01800F037
:10114000B7F9381B09998862E1E0B44220DA22003D
:101150002900019800F0ACF9099989690919099ADF
:101160009161301B099A5062012F04DA09983830D6
:101170000078000709D56846007A099AD268505469
:101180000998C069401C0999C86109988762BEE046
:1011900032002900019800F08BF9099880698019C4
:1011A000A41B012F04DA099938310978090705D5FC
:1011B0006946097A099AD2681154401C09998861D4
:1011C00024B2A74200DA3C0024B22200A9190998EF
:1011D000C068099B9B69C01800F06AF9099880698A
:1011E000001909998861381B099948628FE06129C3
:1011F00014D1702015E0BC4205DA0999383109781C
:10120000090700D427007F1E00D500270AA8007810
:10121000672801D1652004E0452002E0412902D180
:1012200050200AA9087009988169481C099AD26857
:1012300000922A78009B5A54691C012F07DA099AF8
:1012400038321278120702D4099988611BE06A4685
:10125000127A009B1A54401C099A9061012F12DBEC
:10126000641E24B2A74200DA3C0024B22200009B94
:10127000181800F01DF9099880690019099988610A
:10128000381B099948620998C06809998969451805
:101290000AA8007828706D1C36B2300003D42B20C9
:1012A00028706D1C03E02D2129706D1C464200241E
:1012B00005AF08E00A2203A800F07CFD049838700E
:1012C000039E641C7F1C31B20129F3DA022C08DA78
:1012D0000AA8007820210143652902D13020287016
:1012E0006D1C002C09D1302028706D1C07E0641E95
:1012F00005A8005D303028706D1C012CF7DA0998C4
:10130000C068099989694018281A0999C86109981B
:101310003830007814210140102914D1099840690F
:101320000999896940180999496A40180999C96950
:1013300040180999896A40180999496B884202DA6C
:10134000081A099908620BB0F0BD0000300079B5A9
:101350000E0014001D00002005E0F06A401CF06241
:101360000020641C6D1E002D08D02178B068009A02
:101370009047B0600028F0D10020C04376BDF8B59A
:1013800004000F0015001E0000F024FD33002A00A9
:101390003900200000F032FDF2BDC9B200E0401C6F
:1013A00002788A4202D0002AF9D100207047010059
:1013B00000E0491C0A78002AFBD1081A7047C9B21C
:1013C00001E0401C521E002A03D003788B42F8D162
:1013D00070470020704780B500F0FCFC012002BD82
:1013E00070B505002C000F3407208443C046C0466A
:1013F000A54233D2082C04D2082402E0083000F0C1
:1014000085F82448026811000CD1011D0A68002AE1
:1014100020D01368A34212D2111DF7E71D68A54220
:101420000DD2191D0B68002BF8D11268011D00E0C8
:10143000191D0B6893420DD01D68A542F8D30029F1
:101440000CD00D682A681300083BA3420AD26A68D0
:101450000A600FE000F0F0FC0028CFD1C046C04683
:10146000002070BD2B190B606E685E60121B0B684C
:101470001A602C600968002904D04A68002A01D04B
:10148000091D00E000210160C046C0460835280063
:1014900070BD00005816002070B504000D00160045
:1014A00000F098FC32002900200000F09DFC70BD87
:1014B000124207D08B0706D00B78491C0370401CE2
:1014C000521EF7D87047830706D00B78491C03706B
:1014D000401C521EF9D1704770B4103A03D378C93A
:1014E000103A78C0FBD2530701D318C918C001D5F0
:1014F00008C908C0D20704D30B880380891C801C4C
:10150000002A01D50B78037070BC7047002800D109
:10151000704738B5083804002068082836D34007DB
:1015200034D1C046C0461A484168002901D08C42D7
:1015300003D26160446019E019004B68002B01D0B0
:10154000A342F9D30B68CD18AC421DD3A54204D1F8
:1015500022689A180A600C0008E04A68002A03D042
:101560002368E3189A420FD362604C6061680029D7
:101570000AD02268A3188B4206D1002303600868B2
:101580001018206048686060C046C04631BD000049
:1015900058160020124224D0994228D970B500254F
:1015A0001B4202D00C00002109E00024012649184A
:1015B0006441944200D3A41A7641F8D33100012645
:1015C00001E0764109D2001864416D41A41A9D41A1
:1015D000F7D2A4185D41B619F5D3300022002B00D4
:1015E00070BD1B42D8D108B500F03CFC08BD01D14C
:1015F0009042D3D202000B0000210020704730B48B
:1016000001004B68802212061A4001201B031B0BAD
:101610004B600BD10B68002B08D10DE00B68640008
:10162000DD0F25434D605B000B60401E4C68E302FC
:10163000F4D523031B0B4B604B681A434A6030BC44
:10164000704730B4012464054D00EC420BD85D00B6
:10165000EC4208D80C001C4364000443144304D239
:10166000994200D1904230BC7047FCD08B42FAD1F5
:101670008242F8E730B4012464054D00EC420BD8F7
:101680005D00EC4208D80C001C4364000443144382
:1016900004D28B4200D1824230BC7047FCD09942C8
:1016A000FAD19042F8E730B4012100220368001D0E
:1016B000002B0BD00468001D0C4202D04D466D1E5D
:1016C00064192260241D1B1FF0D0FAE730BC70475C
:1016D00070B504000D0060684000400D3F4EB04200
:1016E00007D16068000302D12068002816D00220CC
:1016F00070BD002804D12000FFF781FF01286BDABC
:10170000012D0DDB311A8D420AD36068002802D505
:101710000020334901E00020310503C4012070BDE1
:101720004142A942616806DA2E4A0A40281800059B
:101730001043606047E08022120611406268120385
:10174000120B80235B0313436360401E2D1800209F
:101750002A003532352A02D36160206070BD002234
:101760001E23DB439D4204DA203522686368236030
:101770006060684211D0521E9241D243D20F2023A2
:101780001B1A25689D402A432568C54066689E400F
:101790002E4326606368C3406360606808436060EE
:1017A0001148824206D28020000682420ED1207863
:1017B000C0070BD52068401C20602068002805D198
:1017C0006068401C60600020C04370BD6068884253
:1017D000F9D120680028F6D1002070BDFF07000075
:1017E0000000F0FFFFFF0F8001000080F4464A1860
:1017F00005D200F00FF801D580174008604700F0CF
:1018000009F80121C907884200D908004042604711
:101810004A1812D2400DC90208430121C9070843E2
:10182000520D40210901521A521C06D452421F3255
:1018300001D4D0407047C01770470020704702683D
:10184000531C036011707047010009D5F4464042F3
:1018500000F006F80122D20711436047010000BFE3
:1018600042221201D21E004207D002D4521E00189A
:10187000FCD5C10A40051205891870478B4200D17A
:10188000824205D98446100062468C4619006346A0
:10189000DF184C18640D7F0D3AD0661C760537D0E2
:1018A000E61B352E34DCDB022B43DB0A0C0DC902B0
:1018B0002943C912202E0DDB1700203E06D01F0041
:1018C000F741F3405F400026012A7741C01871417B
:1018D0000DD217E01700F741F2405740F3415A404C
:1018E000B340F3405A400026801859410AD3A21C45
:1018F00052050FD0C207012F724117004008CB07D5
:1019000018434908641C24054208AF4170416141F5
:10191000F0BC7047641C21050020F9E76B4010E023
:101920006B40ABE7F742F3D1E943F1E72442EFD153
:1019300000200021ECE7F0B40125ED070F005F4027
:10194000EED40C00871A9C4105D2C01BA141D219CC
:10195000634169406B40AE0ADF184C18F442E1D293
:10196000640D7F0DE2D0E61B362ED1DCDB022B436B
:10197000DB0AA4460C0DC9022943C90A012E28DC42
:1019800004D1D6075208DF073A435B08EF0A7642D4
:101990009041994114D039423BD1B6194041494157
:1019A000761C394204D1761C001849413942FAD0DC
:1019B000B9436746B74208D9A41B24052143A7E7CA
:1019C0000042EAD13642E8D1A2E7E40AE10700206A
:1019D0009EE7202E0BDD203E1F00F340F7415F40C5
:1019E000012A002257417E42984191410BE01700A5
:1019F000F741F2405740F3415A40B340F3405A4058
:101A00007E42904199410A0303D2641EB6194041B7
:101A100049410027641E24054208AE4178416141D6
:101A2000F0BC7047F446002804D4494200F013F893
:101A3000404260474042002905D45FD000F00BF8D7
:101A4000404249426047494200F005F84942604738
:101A500003460B43E6D40022030A8B420BD2030950
:101A60008B4219D243088B422ED2411A00D2014632
:101A7000524110467047FF2209023FD012068B42A6
:101A800005D3121209028B4201D312120902030973
:101A90008B4219D300E0090AC3098B4201D3CB0161
:101AA000C01A524183098B4201D38B01C01A5241A3
:101AB00043098B4201D34B01C01A524103098B42A7
:101AC00001D30B01C01A5241C3088B4201D3CB0092
:101AD000C01A524183088B4201D38B00C01A524175
:101AE00043088B4201D34B00C01A5241884200D3B5
:101AF000401A5241CFD201461046704708B500F057
:101B0000B3F908BDF0B50E005E400125ED072E408B
:101B1000B446AE0ADF184C18F44208D2F7420ED28F
:101B2000640D01D07F0D12D100206146F0BD05D1BA
:101B3000F74201D87F0D05D10020C143F0BDFBD194
:101B4000640DF9D00020C143490549088FE0E4192C
:101B5000C902DB0229432B43DB0A460DC002314395
:101B60008E4630B487B295B27D432E0CADB2140CC4
:101B70007C43A419260C240425439CB27C43A4195D
:101B8000190C7943270CC919A4B20F043C43090C62
:101B9000000C97B247432E0CBE193543ADB2170C5B
:101BA0004743360CBF19A6B2BF193E043543240C77
:101BB0003E0C36199FB24743BF19BCB23E0C89197F
:101BC0001F0C47437F183E043443390C704680B2E3
:101BD00097B247432E0CBE193543ADB2170C47439D
:101BE000360CBF19A6B2BF193E043543240C3E0C77
:101BF00036199FB24743BF19BCB23E0C89191F0C5E
:101C000047437F183E043443390C77463F0C90B26B
:101C100078432E0C80190604ADB22E43050CA0B2F9
:101C20002D18120C7A435019020C80B2240CA418FF
:101C30009AB27A43121914042043120C89181B0C0F
:101C40007B43C91830BCEF0A394203D1B619404171
:101C50004941641E6F12BF0DE41B0BDBFF19BC4230
:101C600011DA240500274208AE41784161416646F9
:101C70003143F0BD641C05D1401C6141CF0201D34A
:101C80004908F4E750E75DE7F0B40E005E40012537
:101C9000ED072E40B446AE0ADF184C18F4423BD292
:101CA000F74241D2640D43D07F0D38D0E41BC90206
:101CB000DB0229432B43CF0ADB0A0600B61A9F41F9
:101CC00004D2641EB6197F41B6185F416812800DB8
:101CD00024180018844222DAE80C0021B6197F414A
:101CE000B61A9F4102D2B6185F413F1C404149419C
:101CF000F4D3241C21DD2405B6197F41B61A9F4177
:101D000005D33743C60737430026012F7041614191
:101D100066463143F0BC7047FCD1F74205D2002043
:101D2000C14349054908F3E704D00020C143F1E766
:101D30007F0DFAD000206146ECE72442FAD1401C26
:101D400061410F03F6D30020E2E7FEE780B51248B9
:101D500000F08BF811A1016041608160C1600161F8
:101D6000416181610EA242628162C162016341638D
:101D70000CA282630DA2C2630164416401BD10B56F
:101D8000054800F072F804002068002801D1FFF730
:101D9000DDFF200010BD0000B800002000000000A2
:101DA0002E00000066616C7365000000747275653A
:101DB000000000007CB504000E0015003000290072
:101DC000FFF746FE00904543701B0190684603C82C
:101DD00003C476BD80B5034800F047F8806902BDB2
:101DE0000000000048010020002804D10EA003C814
:101DF00003C200207047017001207047002904D100
:101E00000BA003C803C300207047002A02D10120A1
:101E1000C0437047002801D00A7802800978481E24
:101E20008041C043C00F7047000000000000000068
:101E3000000000000000000007490868002801D0E9
:101E400000207047054807229043086004499143E9
:101E5000091A0160704700BF68160020771A002039
:101E6000701C00207047FEE770477047F8B500BF50
:101E70000FA000F059FC0024A1A700BF11A6A148A3
:101E8000E1004518AB881A002968300000F04CFCCE
:101E9000002C06D0281F0088A988411A380000F0BD
:101EA00043FC99A000F040FC641C172CE7DBF1BD5B
:101EB000617065727475726520646174613A0D0AAF
:101EC00000000000257309253034580925640909EC
:101ED0000000000038B514000D00012802D00228CF
:101EE00008D011E0012D01D188A10EE0032D0FD102
:101EF00087A10AE0002903D106A1200000F026FCFA
:101F0000082D05D105A100E010A1200000F01EFC65
:101F100031BD000041455F4E4F00000041455F5913
:101F200045530000C1790902807901430020754AB8
:101F3000C300D21893888B4201D110687047401CAF
:101F400080B21728F3DB00BF00A070476572726F84
:101F500072000000F5B581B01F00481F6946488037
:101F60006846047A00250220384008700EE0019887
:101F7000461968460078002803D0B17865A000F0C3
:101F8000D3FBB0782418A4B26D1CEDB2684640882B
:101F90008542ECDB5CA568460078002802D028006A
:101FA00000F0C2FBF80709D5230AE2B26846017ABD
:101FB00003A000F0B9FB280000F0B6FBF7BD00005D
:101FC00041C0E0D0CD3A2530325820D0A3D1E9BA73
:101FD000CD3A2530325820253032580D0A00000005
:101FE000F4B586B004001D006846491F81800020BA
:101FF000009002262E4000BF46A70AE0002E04D023
:1020000020188178380000F08FFB0098401CC0B287
:1020100000900098694689888842EFDB002E02D044
:1020200039A000F081FBE80727D56846017E00BF94
:1020300013A000F079FB2000FFF774FFB9A50100A1
:10204000280000F071FB443402AA21780120FFF738
:1020500041FF02A9280000F067FB02AAA178022034
:10206000FFF738FF02A9280000F05EFB1820694640
:10207000087000BF05A000F057FB07B0F0BD0000DE
:1020800045C0E0D0CD3A2530325809000D0A0D0A7E
:1020900000000000F5B581B01F00481F6946488068
:1020A0006846047A00250220384008700EE0019846
:1020B000461968460078002803D0B17815A000F0D2
:1020C00033FBB0782418A4B26D1CEDB2684640888A
:1020D0008542ECDB82A568460078002802D0280003
:1020E00000F022FBF80709D5230AE2B26846017A1C
:1020F0000AA000F019FB280000F016FBF7BD000055
:1021000025640900000000200D0A0000414600007F
:102110004D460000253032782000000046C0E0D057
:10212000CD3A2530325820D0A3D1E9BACD3A253066
:10213000325820253032580D0A000000F4B582B024
:1021400006000C00012100F036FB050002213000E2
:1021500000F031FB0600471BFFB2FF2F01D1042026
:1021600015E0002F03D082480078002801D1052017
:102170000DE0280000F009FB0178F02901D00120D2
:1021800005E0C119491E0978552903D0022000F045
:1021900039F8F7BD694642780A7039006A46127804
:1021A0000A3A012A08D90A3A06D0521F04D0173A2F
:1021B00016D0453A0AD022E0012C13D0022C04D1CB
:1021C0006A46137A1278FFF7C5FEF7BD052C09D0D1
:1021D000062CFAD16A46137A7522FFF701FFF7BD84
:1021E000032C04D13100280000F0AAF8F7BD042C1C
:1021F000EBD16A46137A3022FFF74CFFF7BD03207C
:10220000C5E7000010B504000CA000F08DFA012C09
:1022100007D012D3032C09D006D3052C0AD007D33C
:1022200010BD00BF07A006E00BA004E00FA002E075
:1022300013A000E016A000F077FA10BD4552524FEF
:10224000523A00005BCDA8D1B6CAFDBEDDCEDECDD0
:10225000B75D0D0A000000005BCDA8D1B6CAFDBE77
:10226000DDCEDECEB25D0D0A000000005BCDA8D150
:10227000B6CAFDBEDDCEDEC0E0D0CD5D0D0A0000E9
:102280005B55385F444154415F4F55545D0D0A0022
:102290005B444154415F4552524F525D0D0A00006C
:1022A00080B5401C80B2401E0CD0401E0CD0401E99
:1022B00001280BD9801E0BD0293801280AD9801E8D
:1022C0000AD001BD9E4808E09E4806E09E4804E012
:1022D0009E4802E003A000E09D4800F025FA01BD01
:1022E0000D0A0000D0A3D1E90900000080B599488B
:1022F00003210170012141700021418006210171FB
:10230000A421954800F0DAFA01BD924902780A70DA
:1023100042784A7082788A70C278CA7000790871EF
:1023200070470000257309008A490A7802704A78CC
:1023300042708A788270CA78C270097901717047D8
:10234000854A13789B00D3185860107880001018C5
:1023500041651078401C1070704702007E48037879
:102360001370426D4368D21A0A70001D7047000056
:10237000A8140020F4B598B004000D0000A9491C71
:102380006846FFF7EAFF002D01D0684645707148A6
:10239000037968460278417870A000F0C5F900BF63
:1023A00075A000F0C1F900250DE0691CACA000F09B
:1023B000BBF9AE0068488019406800F0E6F904A94E
:1023C00088516D1CEDB2684600788542EDDB00BF98
:1023D0006BA000F0A9F900BF6BA000F0A5F9A1A0C7
:1023E00000F0A2F96AA704AE16E000BF6AA000F0F0
:1023F0009BF958480079032809D168460078800085
:102400003018001F0068015D2000FFF749FF95A00C
:1024100000F08AF9641CE4B268464078844200DB2C
:1024200088E0611C5EA000F07FF9002504E0380020
:1024300000F07AF96D1CEDB268460078854209DA41
:1024400004A8A9004058015D18A800780028EED023
:1024500083A0EDE73F4909790529CAD180003018EA
:10246000001F0068015D601C80B2401EBDD0401E90
:102470005ED0401E012859D9801E53D0801E0128ED
:1024800052D9143803284BD90D3843D0401E0328A5
:1024900043D9001F03283BD9001F012836D914381F
:1024A0002CD0801E20D019381CD0401E032817D9EC
:1024B000001F13D0401F02280ED9801F022809D9FF
:1024C000C01E012804D9801E93D100BF36A08EE71C
:1024D00037A08CE738A08AE739A088E73AA086E7DA
:1024E0007DA084E77AA082E701AA0220FFF7F2FC30
:1024F00001A900BF74A000F017F97AE701AA012032
:10250000FFF7E8FC01A900BF6CA0F4E769A06EE743
:1025100066A06CE763A000F007F900BF61A066E762
:102520005EA064E75BA062E758A060E754A05EE7A6
:1025300051A05CE7A421084800F0C0F919B0F0BD33
:1025400098250008782600088026000894260008B0
:10255000A825000850160020B0120020D0D0CAFDD7
:10256000256409C1D0CAFD256409C3FCC1EEC0E0E1
:10257000D0CD25640D0A00004C494E4509000000ED
:1025800066756E09000000007374617465090000CF
:102590002530325809000000B0FCCDB7090000001A
:1025A0005B202564205D0900B0FCCEB2090000006C
:1025B000D0A3D1E9BACD0900B1E4BBAF352000000A
:1025C000B1E4BBAF34200000B1E4BBAF3320000066
:1025D0007CB56846FFF7A8FE234E00246D46287997
:1025E000401E05283BD801A1095C8F44044E044ECF
:1025F000044EA878002801D01CA300E01CA36A7830
:10260000297800BF36A000F08FF81A48007800281B
:102610000ED106E06B782A7829792000FFF78EFD2D
:10262000641C3078E4B28442F4D30A2000F05DF9EF
:10263000AA7869782878FFF79DFE73BD297800BFD6
:1026400032A000F071F806E06B782A782979200032
:10265000FFF774FD641C3078E4B28442F4D373BD98
:10266000256409000D0A0000A81400204445430019
:1026700048455800B0120020D7D6BDDACAFD09007F
:10268000C3FCC1EEC0E0D0CD09000000B9E2C8A68D
:1026900009000000C1F7CBAEBAC50900CEB4D6AA76
:1026A00031090000CEBBD6C331090000B1E4BBAF95
:1026B00031090000B1E4BBAF3120000041462F4D8D
:1026C00046092573090000004145092573090000EA
:1026D000B1E4BBAF32200000CEBBD6C3320900004C
:1026E000B4F2D3A1CAFAD0D0D0C5CFA209C6F0CADD
:1026F000BCD0D0256409BDE1CAF8D0D0256420B48F
:10270000F2D3A1BDF8D6C625730D0A00B4F2D3A149
:10271000BAE1CFF2D0C5CFA209B4F2D3A1B7BDCAF6
:10272000BD253032580D0A000EB400B582B003A9A1
:1027300000916B4602000121034878440A30FDF7FE
:10274000BDFC029906B00847433200000CB41CB52A
:10275000040004A80190009401AB0A0069460848EF
:1027600078441C30FDF7AAFC0021009A1170002863
:1027700001D40098001B02B0019910BC03B00847B7
:10278000BFF0FFFF3349085C7047324908187047B3
:1027900080B5FA2109012F4800F090F801BD10B56D
:1027A00080002D4B511A1C18A1602C490A50187832
:1027B000401C187010BD8200012902D0022904D0EB
:1027C00070472548801880687047244880587047B3
:1027D00070B500231F4C03E0CD5CC618A5555B1CEB
:1027E0009342F9DB80181C49486070BD00201A49EB
:1027F00048607047F8B50024174D6868184988424A
:1028000002D36C600320F2BD2878142801DB02207B
:10281000F2BD144E80223100134800F0B3F8134883
:102820000078012812D1287814280DDA104807788A
:102830003A0031006868FFF7CBFF6A6839002878F2
:10284000FFF7ADFF0A490C70084804700120F2BD83
:102850000000000040020020A81400200015002005
:10286000A10F000054130020D41300206D16002087
:102870006C160020094205D0830705D00270401C69
:10288000491EF9D170470000130030B41400150040
:10289000103902D310393CC0FCD2490700D30CC018
:1028A00000D504C0890002D30280801C002900D515
:1028B000027030BC704700000022DBE70022E3E733
:1028C00080B51248016810220A430260002000F01F
:1028D000DDFB00F017FC002002BD0D480168491C1B
:1028E000016070470A480068704731B5FFF7FAFF8A
:1028F0000400009D0020C043854200D06D1CFFF7FE
:10290000F1FF001BA842FAD331BD000000200240B5
:102910006416002010B5040015D06920205C002842
:1029200004D168216054200000F07AFC2420692141
:10293000605420680168012291430160200000F08A
:102940003BF9012801D1012010BD606A002802D0A6
:10295000200000F0BDF920684168094A0A40426041
:10296000206881682A2291438160FFE7206801681E
:1029700001220A430260200000F010FA10BD00009E
:10298000FFB7FFFF70B504006A20205C202842D109
:1029900000290BD0002A09D0A06880235B0198424F
:1029A00006D12069002803D1C80701D5012070BDD8
:1029B0006820205C01282ED001266823E65461653A
:1029C000582022520025E56622206A2160542A48B8
:1029D000616E88622948616EC8622648616E08632C
:1029E000606E45631300626D21682431606E00F0F3
:1029F000D1FC682025542068016832020A43026035
:102A0000206881680E4386602068816840220A43FE
:102A10008260002070BD022070BD10B504006920E6
:102A2000205C21280FD12068816809060BD58168B8
:102A3000802291438160206E002801D000F0E2FCEA
:102A4000200000F017FA6A20205C22280FD12068AD
:102A5000816849060BD58168402291438160606E90
:102A6000002801D000F0CEFC200000F00CFA00207D
:102A700010BD0000272F0008AD2E00081D2F0008F4
:102A800070B504002368D869196805072D0F07D1B0
:102A9000820605D58A0603D5200000F0B4FA70BD81
:102AA0009A68002D63D001252A4203D19026760032
:102AB0000E405CD0C60705D5CE0503D51D62E36E7A
:102AC0001D43E56604230225860706D5D60704D5EF
:102AD00026683562E66E1E43E666460706D5D607CB
:102AE00004D526683362E36E1D43E56608250307B7
:102AF00008D58B0601D4D20704D522681562E26E90
:102B00002A43E266E26E002A50D0800604D5880689
:102B100002D5200000F077FA4026E06E054003D190
:102B20002068806830401CD0200000F0ACF920689C
:102B300081680E4011D08168402291438160606EAF
:102B400000280AD061494163606E00F071FC0028E2
:102B50002CD0606E416B884770BD200000F02BF8D0
:102B600070BD200000F027F80020E06670BDC502AF
:102B70000DD552020BD58020400318622020692217
:102B8000A0546A216054200000F0FAFC70BD0206D7
:102B900005D50A0603D5200000F0F4F970BD400603
:102BA00004D5480602D5200000F020FA70BD0000D0
:102BB0007047704770477047F8B504001022002036
:102BC0000025266831688E4F0F40A1683943276978
:102BD0000F4361693943E7690F4337607768A2495A
:102BE0003940E7680F437760B768A0493940A76963
:102BF0000F43216A3943B1609D498E420FD1A949E3
:102C000009688907890F0DD0022906D003D303294B
:102C100009D1022207E0042205E0082203E0A249CC
:102C20008E4200D1002280231B02E7699F4225D1FA
:102C3000002A06D0022A07D0042A09D0082A0DD07B
:102C400013E000F017FF05E061684808A74A08E0B4
:102C500000F0E2FE616840004A0802E0616848084E
:102C60005A008018FEF7F7FE00E00125A049014058
:102C70000004400C4007400F084318E0002A06D02B
:102C8000022A07D0042A0AD0082A13D01AE000F03A
:102C9000F1FE06E061684808964A80180DE000F0F1
:102CA000BBFE61684A088018FEF7D5FE80B2216835
:102CB000C86008E061684808C018FEF7CCFE80B222
:102CC000F06000E001252800F2BD0000712F00082F
:102CD0002421415CC90706D501684A68864B134028
:102CE000826A1A434A602421415C890706D501683B
:102CF0004A68824B1340C26A1A434A602421415CED
:102D0000490706D501684A687D4B1340026B1A4398
:102D10004A602421415C090706D501684A68794B5D
:102D20001340426B1A434A602421415CC90606D510
:102D300001688A68744B1340826B1A438A602421AD
:102D4000415C890606D501688A68134B1340C26B43
:102D50001A438A602421415C490611D501684A68FA
:102D60006A4B1340026C1A434A60026C80235B0377
:102D70009A4205D14A68664B1340426C1A434A6036
:102D80002421415C090606D501684A68614B13405D
:102D9000806C184348607047FFDFFFFFF8B5040000
:102DA0000025E566FFF79EFD060031482168814257
:102DB0001DD1594F0068000709D500973300002244
:102DC00080218903200000F01DF800280DD1206823
:102DD000006840070BD50097330000228021C9030B
:102DE000200000F00FF8002801D00320F2BD2020C1
:102DF000692160546A216054683425700020F2BD56
:102E0000F369FFFFFEB504000F000025089E20684F
:102E1000C0693840B84201D1012000E00020694675
:102E2000097988421ED10020C0438642EFD0002E8F
:102E300005D0FFF757FD0299401A8642E7D2206875
:102E400001688F4A0A40026020688168012291432C
:102E500081602020692160546A21605468342570A3
:102E60000320FEBD0020FEBDFFCFFFFFFFF4FFFFEC
:102E70000038014001680A68C0239A430A60202193
:102E800069300170704701680A687E4B13400B601F
:102E900001688A6801239A438A6020216A300170A0
:102EA00070470000301002400044004010B501009F
:102EB000486A202209680968114012D15A23C15278
:102EC00001680B68704C1C400C6001688B68012421
:102ED000A3438B6001688B684024A3438B606A2105
:102EE0004254FFF766FE10BD000000000024F4000D
:102EF000F0FF000000127A00FFFFFDFFFFFFFEFF62
:102F0000FFFFFBFFFF7FFFFFFFEFFFFFFFFFEFFF75
:102F1000FFFF9FFFFFFFF7FFFFFFFF0180B5406A44
:102F2000FFF748FE01BD38B5446A00256920205CE2
:102F3000212808D120688068000604D552216552F6
:102F40002000FFF797FF6A20205C222808D1206824
:102F50008068400604D55A2025522000FFF793FFD1
:102F6000E06E10210143E1662000FFF724FE31BD31
:102F700080B5406A0100523100220A810A80FFF7C1
:102F80001AFE01BD6921415C21292DD15221415AEE
:102F900000290AD101680A6880239A430A60006800
:102FA000016840220A4302601CE0816880225201CD
:102FB00091420CD10169002909D1C16C0988C90568
:102FC000C90D02681185C16C891CC16405E0C16C22
:102FD0004A1CC2640978026811855221415A491E6F
:102FE00052300180002070470220704780B5016890
:102FF0000A6840239A430A60202169228154FFF71E
:10300000D7FD002002BD10B55C21415A02686A2339
:10301000C35C222B2CD1928C836880246401A34250
:1030200009D10369002B06D11140426D1180416D19
:10303000891C416504E0436D5C1C446511401970B6
:103040005A21415A491E5A22815209040ED101685F
:103050000A680C4B13400B6001688A6801239A438D
:103060008A6020216A228154FFF7A3FD002010BD51
:103070009069082101439161022010BD0000000009
:103080005FFEFFFFDFFEFFFFFFFEFFFF10B586B014
:1030900000220100112000F090FD112000F091FDB0
:1030A000102013490A6802430A600968084000902A
:1030B000009801A902A800F02DFD00F0DBFC0D4CEA
:1030C0000D4921600D49E1600D49FEF7C4FC401E29
:1030D000606000202061A060200000F0A7FD0028B3
:1030E00003D1200000F0B2FD00E0012006B010BDC9
:1030F0001C100240E415002000100040E70300000F
:1031000040420F0080B501200D490A6802430A6061
:103110000968084000900098002200210420C04364
:1031200000F04BFD002200210120C04300F045FDCE
:10313000002200210020C04300F03FFD01BD00BF80
:103140001810024080B557485749016057494160FF
:1031500000218160C16001610C2242618161C16115
:1031600001624162FFF7D6FB002804D0452100BF71
:1031700058A000F0EDFE01BDF0B58FB080208002B8
:103180004B490A6802430A6009680840069006989D
:10319000042000900227019703260296002403943E
:1031A00001250495059569469020C00500F0D2FEE2
:1031B00008200090019702960394049505956946AE
:1031C0009020C00500F0C6FE3A480168FF229143F6
:1031D0000160280738490860E120C0020790089480
:1031E00009940A940C200B900C940D94334C07A96D
:1031F000200000F001FFA06831490140A160A068F3
:10320000A10C0143A16060682E4901406160A06883
:103210002A218843A0602068054325600FB0F0BDD7
:1032200030B587B0040020681F49884237D180201C
:10323000C00125490A6802430A60096808400090F5
:103240000098C020C000019002200290012003904D
:1032500003210491059001A99020C00500F026FFEC
:103260001A4D1B48286000206860A8608021E96032
:1032700028616861A861E861280000F05FF8002813
:1032800003D0A12113A000F063FE65666C620022EA
:1032900000211B2000F091FC1B2000F092FC07B0E5
:1032A00030BD0000D41300200038014039C616009C
:1032B0001C1002401CE400E000E100E0004400407B
:1032C000FFFBFFFFFFB7FFFF18100240A015002013
:1032D00030000240433A5C55736572735C41646D23
:1032E000696E6973747261746F725C446F63756D3B
:1032F000656E74735C574F524B5CBBDBCCEC5CCFA0
:10330000EEC4BF5C38353137BEB5CDB75C636F6492
:10331000655C38353137B4AEBFDAD7A5C2EB207360
:10332000746D3332663035315C6170705C5372633A
:103330005C75736172742E630000000010B50400A8
:1033400001D1012010BD02202121605420680168B4
:103350000F4A0A4061681143A2680A43E1681143B9
:1033600022690A4361691143A2690A43E169114371
:103370000160200000F0F3F80020A062E06220630A
:103380006063A06301212122A1542034207010BD6C
:103390000FC0FFFFF2B50400002000252021615C72
:1033A000012901D10220F2BD01262027E655022184
:1033B0002127E75D012F20D12127E155A063206857
:1033C0000168B14301600099200000F0B7F820685F
:1033D000E16A0029016803D00E220A43026007E077
:1033E0000A220A43026020680168042291430160B6
:1033F000206801680E43066002E020342070022538
:103400002800F2BD01680A680E239A430A60016829
:103410000A6801239A430A600121026C9340C26B3F
:103420005360212281540021203001700020704718
:1034300070B50022002401212123C35C022B03D09C
:1034400004228263012415E003681D680E26B5433B
:103450001D6003681D688D431D60036C01259D4040
:10346000C36B5D602123C15420214254416B0A008B
:1034700000D08847200070BDFEB5C16B096802917D
:1034800001680A680192026C009220220423029CC7
:10349000009D0426AE40264011D0019C1C400ED059
:1034A0000C68224002D10A689A430A60016C8B4082
:1034B000C16B4B60C16A0A003FD08847F7BD01234A
:1034C00002240025029EB446009E0227B7406646AD
:1034D000374016D0019E264013D00E68324005D1E9
:1034E0000A680A26B2430A6021214354016C8C40C9
:1034F000C16B4C6020214554816A0A001DD0884769
:10350000F7BD08226446009E0827B740274014D024
:10351000019C224011D00A680E24A2430A60016C6B
:1035200001228A40C16B4A608363212143542021D8
:103530004554016B0A0000D08847F7BD30B501241F
:10354000056CAC40C56B6C60046863604068102813
:1035500002D1A260E16030BDA160E26030BD10B573
:1035600004002068044940181421FEF774FA800012
:1035700020640248E06310BDF8FFFDBF0000024078
:103580007047FEE7F0B583B00400AD4D2078C0076A
:103590004CD58027BF0268680C210140042907D060
:1035A00068680C21014008290AD16868C00307D562
:1035B000286807403AD06068002837D10120FEBD56
:1035C0006168012902D1286879080BE09D489E4A6C
:1035D00000290AD0052908D128687900014329600B
:1035E0002868D1430143296005E029680A402A6020
:1035F000296808402860606800280BD0FFF772F93E
:1036000006002868384011D1FFF76CF9801B652847
:10361000F7D362E1FFF766F906002868384005D065
:10362000FFF760F9801B6528F7D356E10227206871
:10363000384018D068680C21014007D068680C2118
:103640000140082925D16868C00322D42868384081
:1036500002D0E0680128B1D12868F82188432169A7
:10366000C900014329602078000743D5E06900289C
:10367000686A30D0012101436962FFF733F906001F
:10368000686A384036D1FFF72DF9801B0328F7D33D
:1036900023E1E068002828680ED001210143296059
:1036A000FFF720F9060028683840D5D1FFF71AF94E
:1036B000801B0328F7D310E1012188432860FFF71E
:1036C00011F9060028683840CDD0FFF70BF9801BB0
:1036D0000328F7D301E1012188436862FFF702F96B
:1036E0000600686A384005D0FFF7FCF8801B032805
:1036F000F7D3F2E02078400765D5002069460870CE
:10370000F806E969014009D1E9690143E961E9691C
:1037100008400190019801206946087071480068CE
:10372000C00512D46F480068A90D01436D480160BF
:10373000FFF7D8F806006B480068C00505D4FFF70E
:10374000D1F8801B6528F6D3C7E0A068012809D00E
:10375000002801D1286A0AE00528286A07D1042137
:1037600001432962286A01210143296206E00121FF
:1037700088432862286A042188432862A0680028B8
:103780000CD0FFF7AFF80600286A384013D1FFF7D6
:10379000A9F8801B9E498842F6D39EE0FFF7A2F865
:1037A0000600286A384006D0FFF79CF8801B98492D
:1037B0008842F6D391E068460078002803D0E86993
:1037C00094490140E9612078C0061DD5606901284F
:1037D0003CD1686B042101436963686B012101439B
:1037E0006963FFF77FF80600686B384005D1FFF783
:1037F00079F8801B0328F7D36FE0686BF8218843C2
:10380000A169C90001436963206A002867D069681B
:103810000C220A40082A00D1D0E63F06944902282B
:1038200028684DD101402960FFF75CF80600286840
:10383000384027D0FFF756F8801B0328F7D34CE019
:1038400000100240FFFFFBFFFFFFFEFF0421C94302
:103850008842686B03D1042188436863CDE7042163
:1038600001436963686B012188436863FFF73AF895
:103870000600686B3840C7D0FFF734F8801B032878
:10388000F7D32AE0E86A0F218843E16A0143E9623D
:1038900068689F490140A06A0843616A0143696002
:1038A0002868790801432960FFF71CF8060028689A
:1038B000384014D1FFF716F8801B0328F7D30CE02B
:1038C00001402960FFF70EF806002868384006D04E
:1038D000FFF708F8801B0328F7D30320FEBD002064
:1038E000FEBD000000700040F2B582B00400012768
:1038F000FF43012593480068284088420AD2914836
:103900000068384001438F480160006828400299F0
:10391000884262D18C4E02202168014005D0716836
:10392000F0229143A2680A4372602168294042D084
:103930006168012902D13068800303E0022903D1C4
:103940003068800103D448E03268104045D0706888
:103950000322904301437160FEF7C4FF009060684A
:1039600001280CD170680C210140042923D0FEF7F6
:10397000B9FF0099401A26498842F3D319E002287A
:103980000CD170680C210140082914D0FEF7AAFF61
:103990000099401A1E498842F3D30AE070680C214E
:1039A000014008D0FEF79EFF0099401A184988424E
:1039B000F4D30320FEBD0298624909682940884279
:1039C0000DD2604800680740029838435D4908609E
:1039D000086805400298854201D00120FEBD20788C
:1039E000400705D5706859490140E0680843706098
:1039F00000F012F8564972681206120F895CC8402E
:103A0000544908600020FFF741FB0020FEBD000084
:103A100089130000FFFFFFEF30B589B004A800BF95
:103A200051A11022FDF758FD684600BF52A1102297
:103A3000FDF752FD48490A6848480C231340082BFB
:103A400011D10F2304AC950C1D40645D6D46896A4D
:103A50000B40E95CD20303D5FDF7FDFF604302E0B4
:103A600020003F49484309B030BD3A4800687047DC
:103A7000FFFFFFFE374800683A49374A126852058F
:103A8000520F895CC840704770B51F2101608022C9
:103A9000520205252C4B1C68640301D5052403E064
:103AA0001C68144000D00124446001241E68264094
:103AB00000D00126C6601E68F6080E4006611E6A28
:103AC000760703D41D6A254000D0012585605D6A14
:103AD000254000D00125C5615D6B254000D0012542
:103AE00045615D6BED08294081611968C90100D508
:103AF0000224046259680A4042625968F022920323
:103B00000A408262D96A0907090FC16270BD0000CC
:103B1000FFFFC2FF10B5072202600F4A13689B0720
:103B20009B0F43601368F0241C4084601268E023FC
:103B3000DB001340C36003480068C207D20F0A606D
:103B400010BD00000020024000100240FFF8FFFFFF
:103B5000CC5800083C0200200410024000127A00F9
:103B600000093D00E05900080203040506070809A2
:103B70000A0B0C0D0E0F10100102030405060708B6
:103B8000090A0B0C0D0E0F1010B58207D30EFF247F
:103B90009C40E2438907090E9940030004D51C4864
:103BA0001B071B0F083B00E01A489B089B00C0182E
:103BB00003681A401143016010BD80B5FFF7E4FFB0
:103BC00001BD0121C006C00E81401348016070474D
:103BD00010B5401E80214904884201D3012010BD48
:103BE0000E4C606003210020C043FFF7CDFF002092
:103BF000A0600721216010BD08490428086803D18E
:103C0000042202430A607047042290430860704710
:103C10001CED00E000E400E000E100E010E000E066
:103C200080B500F001F801BD7047FEE710B5040053
:103C300001D1012010BD3D20205C002804D13C2191
:103C40006054200000F001F80AE07047006801218C
:103C5000C2680A43C26002681143016000207047D5
:103C600002203D216054211D206800F0B1F80120A0
:103C70003D342070002010BDF8B5040020680025F8
:103C800002260169314015D0C168314012D00221AD
:103C9000C9430161012121778069800703D0200099
:103CA00000F093F805E0200000F08EF8200000F00E
:103CB0008DF82577206804270169394016D0C1683E
:103CC000394013D00421C943016126778069C0219E
:103CD0008900014003D0200000F077F805E02000C3
:103CE00000F072F8200000F071F8257720680826AF
:103CF0000169314014D0C168314011D00821C94355
:103D000001612777C069800703D0200000F05DF8CB
:103D100005E0200000F058F8200000F057F8257763
:103D20002068102102690A4016D0C268114013D0E1
:103D30001021C94301612677C069C0218900014073
:103D400003D0200000F041F805E0200000F03CF82E
:103D5000200000F03BF8257720680169C90708D5E5
:103D6000C168C90705D50121C9430161200000F0E0
:103D7000DFF82068802102690A4008D0C26811403B
:103D800005D08021C9430161200000F05CFA206861
:103D9000402102690A4008D0C268114005D0402184
:103DA000C9430161200000F012F820682021026957
:103DB0000A4008D0C268114005D02021C9430161E2
:103DC000200000F03FFAF1BD704770477047704720
:103DD000F0B506681E4A1F4B8024E4051E4DA8421C
:103DE00003D0A04201D0984208D17027BE433700CB
:103DF0004E683E43A8420ED0A0420CD098420AD052
:103E0000164B984207D0904205D0154B984202D0ED
:103E1000154B984203D1134B3340CE681E43802389
:103E20009E434B69334303608B68C3620B688362B4
:103E3000A84207D0904205D0094A904202D00A4ACF
:103E4000904201D10969016301214161F0BD000087
:103E50000040014000040040002C014000200040D0
:103E600000440140FFFCFFFF0048014010B5FEF791
:103E700027FD00F01CF800F038FA00F071FBFFF7A6
:103E800061F900F083FB00F0DBFBFFF775F900F050
:103E900055FC2C4C01E000F06DFC2088FA21C90093
:103EA0008842F8DB0020208000F08AFCF5E770B53E
:103EB00096B00A20099001240C9410200D901094C3
:103EC0000225119500261296A020800313901496C7
:103ED00009A8FFF757FB002800D0FEE70720009055
:103EE00001950296039601216846FFF7FDFC002824
:103EF00000D0FEE7144804900694C009059004A879
:103F000000F014FD002800D0FEE7FFF7AEFDFA2117
:103F10008900FDF7A0FDFFF75BFE0420FFF76CFEB4
:103F2000002200210020C043FFF747FE16B070BDFD
:103F300000680649884200D0704780B5FEF7CDFC86
:103F400001BD0000AE120020010001000010004081
:103F5000FEE7FEE7F0B500230CE02D0A2A006A43D5
:103F60006A436A43456A1601B61AB54362432A4357
:103F700042625B1C0A681400DC402FD001259D4082
:103F80001540F6D02A006A435400A618F443066888
:103F900026404F685743374307604E68012E01D0D3
:103FA000022E05D1866826408F68574337438760C5
:103FB000C66834400E6956432643C6604C68022CDE
:103FC000D7D14C69FF2DC8D86A436A43056A1601E8
:103FD000B61AB54362432A430262CAE74B68012B13
:103FE00001D0022B05D143689343C9684A431A4361
:103FF00042600120F0BDFEE770B584B004000E0001
:1040000000252068C00741D4206824490140706819
:104010000843F168014330690843B16901432160F5
:1040200060681F490140B06808436060A0681D498E
:10403000014070690843A0601648844203D1002003
:1040400000F00DFD06E0144884421FD1684600F0E0
:10405000FAFC0298002819D03168002916D00125F1
:104060004A08B369EE03B3420BD140008018FDF754
:10407000F2FC80B20C4901400007400F0143E160AF
:1040800004E08018FDF7E7FC80B2E060280004B08F
:1040900070BD00000038014000440040F369FFFF9C
:1040A000FFCFFFFFFFFCFFFFF0FF0000FFB5002385
:1040B00027E00525B5403D43039E35605B4D2E68E6
:1040C000E5432E404F68FF0300D52643574F3E601F
:1040D0007E682E404F68BF0300D52643534F7E6055
:1040E000BE682E404F68FF0200D526434F4FBE608A
:1040F000FE6835404E68B60201D52C432500FD60B0
:104100005B1C0D682C00DC4000D188E001249C4041
:1041100002942C40F4D04D68022D01D0122D18D1FC
:10412000DD08AD0045192E6A00965E07F60E6F4653
:104130003E71009FBC466E4637790F26BE406746EB
:10414000B743BC460F696E463679B740664637437B
:104150002F6206685D006F463D7103253F79BD40C3
:10416000EF4300973D4635400E79B607B60F6F46D0
:104170003F79BE402E4306604D68012D05D0022DCB
:1041800003D0112D01D0122D11D18668009D35402C
:10419000CE686F463F79BE402E4386604568029EDA
:1041A000B5434E68F706FF0F9F402F434760C66830
:1041B000009D35408E686F463F79BE402E43C660F5
:1041C0004D68ED009CD51A4D2D6801262E43184DE3
:1041D0002E602D68EE07F60F0096009D154D9E0887
:1041E000B600AD1903952F689D072E0F0F25B5401A
:1041F000AF439025ED05A84201D100255AE70E4DA9
:10420000A84201D1012555E70C4DA84201D1022554
:1042100050E70B4DA84200D04BE703254AE7FFBD0E
:10422000002A01D08161704781627047000401401B
:10423000181002400800014000040048000800482F
:10424000000C0048704770470121C006C00E814035
:10425000B6480160704710B58207D30EFF249C401A
:10426000E2438907090E9940030004D5B0481B07B3
:104270001B0F083B00E0AF489B089B00C018036879
:104280001A401143016010BD81B0AB490A68024376
:104290000A60096808400090009801B0704710B5A6
:1042A000A64A0B069B0DD218090C13680F248C40EC
:1042B000A34388401843106010BD10B50B004B435A
:1042C00001685C00E418A14353430B43036010BD35
:1042D00010B50B004B43C1685C00E418A143534385
:1042E0000B43C36010BD81627047F0B589B0802078
:1042F0000003FFF7C9FF8020C003FFF7C5FF802040
:104300008002FFF7C1FF8020C002FFF7BDFF9026AB
:10431000F60510213000FFF7E6FF894D80214901A5
:104320002800FFF7E0FF10200290012703970024E8
:1043300004940594069402A93000FFF70BFE38039D
:104340000290039704940594069702A92800FFF7AA
:1043500001FE7C490020FFF7A2FF7B490020FFF708
:104360009EFF7A490020FFF79AFF00210120FFF706
:1043700096FFB9040120FFF792FF75490120FFF76E
:104380008EFF74490120FFF78AFF73490120FFF770
:1043900086FF02210020FFF782FF70490020FFF70F
:1043A0007EFF012220213000FFF792FF01224021F1
:1043B0003000FFF78DFF012280213000FFF788FFDA
:1043C000012201212800FFF783FF0122022128009A
:1043D000FFF77EFF012251032800FFF779FF01223A
:1043E00091032800FFF774FF0122D1032800FFF793
:1043F0006FFF012211023000FFF76AFF0122D10294
:104400003000FFF765FF002220213000FFF755FF45
:10441000002240213000FFF750FF002280213000B1
:10442000FFF74BFF002201212800FFF746FF002283
:1044300002212800FFF741FF002279032800FFF73F
:104440003CFF0022B9032800FFF737FF0022F903E1
:104450002800FFF732FF002239023000FFF72DFF5E
:104460000022F9023000FFF728FF202000906D465F
:104470002F716C710326AE71684600F06BFB402013
:1044800000902F716C71AE71684600F063FB802064
:1044900000902F716C71AE71684600F05BFB009765
:1044A0002F716C71AE71684600F054FB02200090D1
:1044B0002F716C71AE71684600F04CFB7803009070
:1044C0002F716C71AE71684600F044FBB803009028
:1044D0002F716C71AE71684600F03CFBF8030090E0
:1044E0002F716C71AE71684600F034FB3802009099
:1044F0002F716C71AE71684600F02CFBF8020090D1
:104500002F716C71AE71684600F024FB002105200C
:10451000FFF7A1FE0520FFF797FE00210720FFF718
:104520009AFE0720FFF790FE09B0F0BD00E100E021
:104530001CED00E000E400E014100240080001401F
:1045400000040048010004000100080001000C0004
:10455000030004000300080003000C0002000C002C
:1045600080B5012008490A6802430A6009680840CA
:1045700000900098002200210A20FFF71EFB0A206D
:10458000FFF71FFB01BD00BF1410024080B51048AB
:1045900010490160002141607F228260FF22C260D9
:1045A00001614161816100F025FB002803D04021B9
:1045B0000AA0FFF7CDFC01BD00680649884205D17D
:1045C00005480168802212020A4302607047000019
:1045D000241600200028004020100240433A5C5579
:1045E000736572735C41646D696E69737472617432
:1045F0006F725C446F63756D656E74735C574F5278
:104600004B5CBBDBCCEC5CCFEEC4BF5C38353137E8
:10461000BEB5CDB75C636F64655C38353137B4AE19
:10462000BFDAD7A5C2EB2073746D333266303531F3
:104630005C6170705C5372635C7274632E63000023
:1046400080B51F481F490160002141608160C02280
:104650009200C26001614161802292008261016228
:10466000416281620722C2620163416300F050FB34
:10467000002804D0462100BF15A0FFF769FC01BD4A
:1046800000681049884200D0704700B587B0880C98
:104690000D490A6802430A600968084000900098C2
:1046A0003820019002200290002003900321049101
:1046B000059001A90548FFF7F9FC07B000BD00000F
:1046C000441400200030014018100240000400484B
:1046D000433A5C55736572735C41646D696E6973CE
:1046E000747261746F725C446F63756D656E747320
:1046F0005C574F524B5CBBDBCCEC5CCFEEC4BF5C79
:1047000038353137BEB5CDB75C636F64655C38351D
:104710003137B4AEBFDAD7A5C2EB2073746D333234
:10472000663035315C6170705C5372635C737069C4
:104730002E630000426951404161704780B51448C2
:1047400001680A68102313430B6001221149FEF728
:1047500019F91148016820220A4302600168820D9C
:104760000A4302600EA0FDF7DFFF00F02FFBFDF70C
:10477000BDFD01BD80B510219020C005FFF7DAFF17
:10478000802149010548FFF7D5FF00F017FC01BD66
:10479000D41300206F16002000440040000400489D
:1047A00044415441323031372E31322E32322020C2
:1047B000737973207374617274210D0A0000000014
:1047C00070B596B080200003324D296801432960FE
:1047D00029680840009000988026760328683043B6
:1047E00028602868304000900098B0002968014394
:1047F00029602968084000900098032002900490E6
:10480000002403942448019001A92448FFF74EFC9A
:1048100001A92348FFF74AFC01A92248FFF746FCFB
:104820002868214901402960286820490140296001
:1048300028681F49014029600121012000F082FC05
:1048400000940AA8FFF720F90A9402251295139400
:104850001594149617A40AA8FEF794FE002803D016
:10486000F5212000FFF774FB694606A8FFF752F90F
:10487000012006900795009906A8FFF735F8002853
:1048800003D0E9012000FFF763FBC820FEF72DF8F5
:1048900016B070BD14100240FFFF00000008004871
:1048A000000C004800140048FFFFF7FFFFFFEFFF78
:1048B000FFFFBFFF433A5C55736572735C41646DE3
:1048C000696E6973747261746F725C446F63756D45
:1048D000656E74735C574F524B5CBBDBCCEC5CCFAA
:1048E000EEC4BF5C38353137BEB5CDB75C636F649D
:1048F000655C38353137B4AEBFDAD7A5C2EB20736B
:10490000746D3332663035315C6170705C4D4B5F75
:1049100041395C5372635C73746D333266307878FE
:104920005F6C705F6D6F6465732E6300F8B5040093
:104930003B4D2068C00356D50026802040052968DD
:10494000014007D129680143296029680840009087
:104950000098012633480068C00512D43148006829
:10496000A90D01432F480160FDF7BCFF07002D484A
:104970000068C00505D4FDF7B5FFC01B6528F6D358
:1049800023E0C02189006868084020D06268114097
:1049900088421CD069682448084069688022520215
:1049A0000A436A606968214A0A406A606860C00711
:1049B0000DD5FDF797FF07006868800707D4FDF75E
:1049C00091FFC01B1A498842F6D30320F2BD6868E4
:1049D00015490140606808436860002E03D02868CC
:1049E0001449014029602078C00705D56869032172
:1049F0008843A168014369612078800605D568690C
:104A000010218843E168014369612068400505D5AC
:104A10006869402188432169014369610020F2BD32
:104A20001C10024000700040FFFCFFFFFFFFFEFF74
:104A300089130000FFFFFFEF354800E035480068AC
:104A40008107C80F704710B5040000F030F82060EF
:104A500000F039F8606000F03EF8A06010BD10B5BD
:104A60000024002821D12C4800688007800F0128ED
:104A700004D013D3032804D009D30FE000F017F8B3
:104A800012E0FFF7D9FF00280FD0244C0DE0FFF70C
:104A9000D5FF002809D08024240206E000F007F8A2
:104AA00000F011F800F017F80400200010BD80B5E8
:104AB0001B4800680C210140082902D100F013F8BE
:104AC00002BD164802BD16490968164A0906090FB3
:104AD000515CC840704712490968134A4905490F9B
:104AE000515CC840704730B50D4A1068C00301D50D
:104AF0000A4800E00D48916A14680F252940491CB6
:104B0000FCF7A9FFA10C0D40AD1C684330BD0000AF
:104B100000100240201002403010024000127A00C3
:104B200004100240CC580008E059000800093D007C
:104B30002C4902E02B4905E02B490A681043086024
:104B4000704729490A6882430A6070472749F4E799
:104B50002749F2E758B50400012620682179002989
:104B600039D000283CD06179002903D002290AD02D
:104B700006D30EE0FFF7E5FF2068FFF7D9FF09E055
:104B8000FFF7D8FF01E0FFF7D3FF2068FFF7D4FF5E
:104B900000E00026A179002922D01448012904D080
:104BA00017D303290ED008D313E04168226891433C
:104BB00041602068FFF7CAFF12E001682268914354
:104BC000016002E02068FFF7C1FF2068FFF7C0FF27
:104BD00006E0002604E0FFF7ADFF2068FFF7B1FF15
:104BE000300052BD000401400404014008040140AB
:104BF0000C04014038B504003DD0607F002803D18B
:104C000020772000FFF7D8FC02206077CA202168B7
:104C10004862532021684862FF25200000F05AF8BE
:104C2000002824D1206881681C4A0A4082602068DC
:104C3000816862682369134362691A430A43826088
:104C4000E0682168086120680169A26812040A43CB
:104C500002612068C16880229143C1602068806839
:104C600080060AD4200000F01DF8002805D0206836
:104C7000456204206077012032BD2068016C084A3B
:104C80000A4002642068016CA2690A430264206839
:104C9000456201206077002032BD0000BFFF8FFF1A
:104CA000FFFFFBFF38B504002068C168A0229143D4
:104CB000C160FDF717FE05002068C068800607D4B4
:104CC000FDF710FE401B11498842F5D3032032BD89
:104CD000002032BD70B5040020684025C16829401D
:104CE00011D10021C943C160FDF7FCFD0600206819
:104CF000C068284007D1FDF7F5FD801B03498842B5
:104D0000F5D3032070BD002070BD0000E903000052
:104D1000F8B5040001D10120F2BD0025A5625D2097
:104D2000205C002804D15C2165542000FFF7A8FC1A
:104D300002205D22A05421680A6840239A430A6039
:104D4000E168204A914205D30023F0263601B142A2
:104D500004D104E0C302561EB14200D0A562012670
:104D6000276B002F04D1914201D3206300E026631A
:104D70006068A16801432069084361690143A06933
:104D8000720210400843E1690143206A0843A16AA6
:104D9000014320680160A069000C04210840616A99
:104DA0000143606B0843E16801430B4320684360A3
:104DB0002068C169044A0A40C26125665D342670D4
:104DC0000020F2BD01070000FFF7FFFF7047FEE77C
:104DD00080B5FDF7A9FC01BD10B50C00801C00F0EA
:104DE000CDF9002210219020C005FFF719FA9CE0B0
:104DF00010B50C00FDF798FC012210219020C00591
:104E0000FFF70EFAFDF732F88FE0000080B57FA0C3
:104E1000FDF78AFC72B6FDF7E9FC002001007C4A30
:104E2000107062B67B490A78521C0A70D2B20B2A03
:104E300003DB08707FA0FDF777FC002002BD0000B7
:104E4000F8B50F00FDF770FC7CA0FDF76DFC0020AD
:104E5000FDF79BFC060000247DA5315D2800FDF7D1
:104E600063FC641CA4B2FA2000018442F5DB00BF9D
:104E700079A0FDF759FC380032E0000010B50C00B5
:104E8000FDF752FC76A0FDF74FFCFDF781FCFDF726
:104E9000ADFC00205E4908706FA044E0F2B5FDF75C
:104EA00043FC00246AA612E0FDF76CFC0100300010
:104EB000FDF73AFC6D1CADB228005749C95988422C
:104EC000F2D300BF64A0FDF72FFC641CA4B25048CD
:104ED0000078844203DAA7005048C559EBE70098F0
:104EE000FDF722FC0020F2BD70B50E00FDF71CFCA2
:104EF0005EA0FDF719FC0024454D06E000230122C9
:104F00000621E0B2FDF71AF9641C2878A4B28442A5
:104F1000F4D30A20FDF7E9FC3000FDF705FC002082
:104F200070BD10B50C00FDF7FFFB2000FDF7FCFB8A
:104F3000002010BD80B500BF50A0FDF7F5FB00BFFD
:104F400051A0FDF7F1FB00BF54A0FDF7EDFB00BF42
:104F500057A0FDF7E9FB00BF5AA0FDF7E5FB00BF36
:104F60005DA0FDF7E1FB00BF5FA0FDF7DDFB00BF2B
:104F700063A0FDF7D9FB00BF67A0FDF7D5FB0020BC
:104F800002BD000010B500210278254BCC001B1992
:104F90001C682478A24203D162A15A6890470AE0B3
:104FA000491C89B20929F0DB002A04D0242A02D145
:104FB0001CA0FFF70DFF002010BD000038B51A48F7
:104FC000017800290BD000240470184D2800FFF749
:104FD000D9FF17480480C8212800FDF76DFC0D4C4F
:104FE0002078002811D0FDF705FC022808D1207890
:104FF000401E20704DA0FDF797FBFDF7E9FA31BD8B
:10500000032802D14CA0FDF78FFB31BD3E0000000C
:10501000A81400206E16002000150020B0140020F7
:10502000B401002041000000E0110020E411002044
:10503000AC120020776169740D0A0000B4F2D3A1AC
:10504000B2C9BCAFBBBAB4E6C7F8CAFDBEDD3A0010
:1050500025303278200000000D0A0D0A0000000003
:10506000C7E5B3FDBBBAB4E6C6F73A00BDE2CEF67B
:10507000B4AEBFDACAFDBEDD0000000068656C6C2E
:10508000703A0D0A000000004120C9E8D6C3B4F20E
:10509000D3A1B8F1CABD0D0A000000004220B6D469
:1050A000BDB9BBB7CEBBD6C3B4F2D3A10D0A0000C5
:1050B0004320BFAACABCB2C9BCAFCAFDBEDD0D0A3F
:1050C000000000004420B4F2D3A1B2C9BCAFCAFDB5
:1050D000BEDD0D0A000000004520C7E5B3FDBBBAE8
:1050E000B4E6C6F70D0A00004620B7D6D7E9B4F2F9
:1050F000D3A1B2C9BCAFCAFDBEDD0D0A00000000DD
:105100004820BAE1C5C5B4F2D3A1BDE2CEF6CAFDCE
:10511000BEDD0D0A0000000049204E554C4C0D0A22
:1051200000000000656E640D0A000000B2C9BCAF4B
:10513000BDE1CAF80D0A000064617461206F7574E6
:10514000210D0A0010B50B4A13680324A34318432A
:10515000106009480268042313430360012901D148
:1051600030BF02E040BF20BF20BF0168042291434E
:10517000016010BD0070004010ED00E0F0B587B098
:105180000600002069460871854C00E0A080684652
:105190000079305C05001CD030281AD0202818D0A7
:1051A00041381A2815D204AA01A9300000F07DF870
:1051B00000280ED004A803C8FCF718FB472D06D022
:1051C000582DE3D0592D37D05A2D37D0DFE7207036
:1051D000DDE700BF74A0FDF7A7FA00BF7FA0FDF7D1
:1051E000A3FA00BF8AA0FDF79FFA20890090E38808
:1051F000A288217892A0FDF797FA00BFA3A700BF6D
:105200009BA500BF93A100BFA9A002AE2278521EA9
:10521000052A45D801A39B5C9F4400BF06242C426D
:105220004A6E0800FDF780FA2800FDF77DFA380085
:10523000FDF77AFA052020E0E080A8E72081A6E7C4
:10524000FDF772FA062023E00800FDF76DFA28004A
:10525000FDF76AFA3800FDF767FA03200DE0FDF765
:1052600063FA042014E00800FDF75EFA2800FDF759
:105270005BFA3800FDF758FA01203071A0883070D1
:10528000E08870702089B07007E0FDF74DFA0220C9
:105290003071A0883070E088707002A8FDF735F892
:1052A00000202070012007B0F0BDF7B582B00024C7
:1052B00000206946087000210022029B039D2D7882
:1052C0005D196E78AD1C01232D2E02D16F463B7007
:1052D0000AE02B2E0AD107E0521C002900D0641EE0
:1052E00087003818400080192E786D1C303EF6B2C9
:1052F0000A2EF1DBFE2E03D1002901D10121F3E7B3
:10530000120601D1002040E0FCF7A8FA06000F00C9
:105310000020002132003B0000F0F0F827D008E028
:105320001BA003C832003B00FCF7ECFB06000F009B
:10533000A41C64B20021C9438C42F1DB002C08D5C7
:1053400015A003C832003B00FCF7DCFB06000F0091
:105350000DE0012C0BDB0020124932003B00FCF772
:10536000D1FB06000F00641E64B2012CF3DA68461C
:105370000078002802D08020000647400498C0C072
:105380000298281A03990870012005B0F0BD0000AA
:105390007B14AE47E17A843F9A9999999999B93FDC
:1053A000441600200000244047312D28CAFAC5C504
:1053B000B4F2D3A13735BFAACDB7C3FCC1EE2909DA
:1053C00047322D28BAE1C5C5B4F2D3A13735BFAAFB
:1053D000CDB7C3FCC1EE290D0A00000047332D28CC
:1053E000CAFAC5C5B4F2D3A13330BFAACDB7C3FC46
:1053F000C1EE290947342D28BAE1C5C5B4F2D3A1BD
:105400003330BFAACDB7C3FCC1EE290D0A0000009E
:1054100047352D28CAFAC5C5B4F2D3A168656164C1
:10542000C3FCC1EE2020290947362D28BAE1C5C5A5
:10543000B4F2D3A168656164C3FCC1EE290D0A0012
:105440004725640958256409592564095A25640DBE
:105450000A0000000D0A582D28C6F0CABCD0D02979
:10546000205BB7B6CEA7302D656E645D0D0A0000D7
:10547000592D28BDE1CAF8D0D029205BB7B6CEA7F8
:10548000302D656E645D0D0A000000005A2D28BDA8
:10549000F8D6C6CAE4B3F6B7BDCABD29095B302D3C
:1054A00048455809312D4445435D0D0A0000000070
:1054B0000D0A582D28B4F2D3A1BAE1C5C5BBF2CA72
:1054C000FAC5C529205B58312DB4F2D3A1BDE2CE77
:1054D000F6C4DAC8DD2058322DB4F2D3A1CAFDBE1D
:1054E000DD2058332DB4F2D3A1BDE2CEF6C4DAC824
:1054F000DDBACDCAFDBEDD5D0D0A000090420ED1C1
:10550000A4460C001C430128644107D0994205D1F0
:105510004C006415641C644000D30C03644670475F
:10552000384909680140814201D1012070470020BB
:1055300070477047FEE77047704780B5FEF770FB15
:1055400001BD10B52F4C0120FFF7EAFF002801D064
:10555000012020600220FFF7E3FF002801D0022095
:10556000206010BD38B5274C2020FFF7D9FF002858
:1055700001D0202020604020FFF7D2FF002801D07A
:10558000402020608020FFF7CBFF002801D0802042
:105590002060A50D2800FFF7C3FF002800D025607C
:1055A000E50C2800FFF7BCFF002800D02560650C43
:1055B0002800FFF7B5FF002800D025606D00280007
:1055C000FFF7AEFF002800D025606D002800FFF730
:1055D000A7FF002800D0256001200B49086031BDDD
:1055E00080B50A48FDF748FF01BD80B50848FEF7C1
:1055F00043FB01BD80B50748FDF742FA00F04BF8C8
:1056000001BD00001404014060160020A015002018
:10561000E4150020D413002080B500F00BF801BD84
:10562000808CC0B270472749C2B28A810A6852068C
:10563000FCD570472448C169890600D4704738B545
:10564000FFF7EEFF0100214A1000CC3000900088E7
:1056500080231B0218421DD15D080024284207D078
:105660000A2915D10343009803800120107031BD31
:105670000D2903D105430098058031BD83049B0C9F
:10568000D2181171401C0099088080B2C82801DB33
:105690000098048031BD0E4801681022CB69134088
:1056A00000D1704780B50A62FDF7B7F9094880213B
:1056B000094A12685268891A01700121417001BDBE
:1056C000000000001C44004000440040E0110020A5
:1056D000D41300206C160020A0150020816807E07C
:1056E0000268116851185368CB18C3600832026011
:1056F000C2689142F4D04A1C826008787047F0B5C5
:1057000087B001000831029102685208D20089185E
:10571000039100250495059501684908C9004418BE
:10572000083440686946C307DB0F4B704008C0006F
:1057300020180190002735E002A8FFF7CFFF46B2FE
:105740000AE00298016840180490029949684018DC
:105750000590029808300290049805998842F0D08C
:10576000411C0491007869460870BD4210D101982F
:10577000844201D100F01EF8256868464078002870
:1057800001D048462D1860682F180834BD42EED06D
:105790006846007828706D1C002E08D5761CE4D170
:1057A000BD42C9D101988442C6D107B0F0BD761E72
:1057B000D2D5F5E780B5012000F002F801BDFEE783
:1057C00080B5C046C046024A11001820ABBEFBE7B8
:1057D00026000200463232004632300046313800A0
:1057E000463136004631340046313300463131000F
:1057F0004631300046392E300000000046382E3049
:105800000000000046372E310000000046362E33DF
:105810000000000046352E360000000046352E30D0
:105820000000000046342E350000000046342E30C3
:105830000000000046332E350000000046332E32B3
:105840000000000046322E380000000046322E359F
:105850000000000046322E320000000046322E309A
:105860000000000046312E38000000001148016899
:1058700001220A43026041680F4A0A4042600168FF
:105880000E4A0A40026001680D4A0A4002604168FF
:105890000C4A0A404260C16A0F229143C162016B07
:1058A000094A0A400263416B01229143416300218E
:1058B00081607047001002400CB8FFF8FFFFF6FE51
:1058C000FFFFFBFFFFFFC0FFACFEFFFF000000007B
:1058D00000000000010203040607080900000000A0
:1058E00000000000686A6C747A4C00000000000040
:1058F000000000006E616E004E414E00696E660051
:10590000494E460010B5074979441831064C7C448D
:10591000163404E0081D0A68891888470100A1426E
:10592000F8D110BD08000000300000007BBDFFFF73
:10593000301400004002002000000000C3FDFFFF03
:105940000200000002000000BC0000003301000063
:10595000000000204002000000F00BF8002801D0F9
:10596000FFF7D0FF0020C046C046FEF77FFA00F0E8
:1059700002F80120704780B500F002F801BDFEE793
:1059800007463846FFF71CFFFBE738B505000C005B
:10599000200000F005F8A04200D00025280032BD0C
:1059A00080B50249FFF73FFE02BD00BFFC010020A9
:1059B00041004200430044004500460048004900C1
:1059C0003F00000001488047014800476D5800082B
:1059D000D5590008C046C046C046C046FFF7BCFFC8
:1059E0000000000001020304FEE7FEE7FEE7FEE719
:1059F000FEE7FEE7FEE7FEE7FEE7FEE7FEE7FEE77F
:105A0000FEE7FEE77ED457000800190000D85700D3
:105A100008AA180000DC57000855180000E05700DD
:105A20000800180000E4570008AA170000E8570013
:105A30000855170000EC57000800170000F0570049
:105A400008AA160000F457000855160000FC57007D
:105A5000080016000004580008AA1500000C5800A1
:105A6000085515000014580008001500001C5800C7
:105A700008AA14000024580008551400002C5800EF
:105A800008001400360034580008AA1300003C58DF
:105A900000085513000044580008001300004C583B
:105AA0000008AA12000054580008551200005C5863
:105AB00000080012000064580008BC11E200F8FF62
:105AC000DC00FAFF8100D10067B0590008D94D0011
:105AD00008B2590008F14D0008B45900080D4E00F5
